{
  "_format": "hh-sol-artifact-1",
  "contractName": "FarmerToFactory",
  "sourceName": "contracts/FarmerToFactory.sol",
  "abi": [
    {
      "inputs": [
        {
          "internalType": "address",
          "name": "factory",
          "type": "address"
        },
        {
          "internalType": "uint256",
          "name": "sugarcaneInTons",
          "type": "uint256"
        },
        {
          "internalType": "uint256",
          "name": "pricePerTon",
          "type": "uint256"
        }
      ],
      "name": "createTransaction",
      "outputs": [],
      "stateMutability": "nonpayable",
      "type": "function"
    },
    {
      "inputs": [],
      "name": "getTransactions",
      "outputs": [
        {
          "components": [
            {
              "internalType": "address",
              "name": "farmer",
              "type": "address"
            },
            {
              "internalType": "address",
              "name": "factory",
              "type": "address"
            },
            {
              "internalType": "uint256",
              "name": "sugarcaneInTons",
              "type": "uint256"
            },
            {
              "internalType": "uint256",
              "name": "pricePerTon",
              "type": "uint256"
            },
            {
              "internalType": "uint256",
              "name": "totalCost",
              "type": "uint256"
            },
            {
              "internalType": "bool",
              "name": "isPaid",
              "type": "bool"
            }
          ],
          "internalType": "struct FarmerToFactory.Transaction[]",
          "name": "",
          "type": "tuple[]"
        }
      ],
      "stateMutability": "view",
      "type": "function"
    },
    {
      "inputs": [
        {
          "internalType": "uint256",
          "name": "transactionId",
          "type": "uint256"
        }
      ],
      "name": "pay",
      "outputs": [],
      "stateMutability": "payable",
      "type": "function"
    },
    {
      "inputs": [
        {
          "internalType": "uint256",
          "name": "",
          "type": "uint256"
        }
      ],
      "name": "transactions",
      "outputs": [
        {
          "internalType": "address",
          "name": "farmer",
          "type": "address"
        },
        {
          "internalType": "address",
          "name": "factory",
          "type": "address"
        },
        {
          "internalType": "uint256",
          "name": "sugarcaneInTons",
          "type": "uint256"
        },
        {
          "internalType": "uint256",
          "name": "pricePerTon",
          "type": "uint256"
        },
        {
          "internalType": "uint256",
          "name": "totalCost",
          "type": "uint256"
        },
        {
          "internalType": "bool",
          "name": "isPaid",
          "type": "bool"
        }
      ],
      "stateMutability": "view",
      "type": "function"
    }
  ],
  "bytecode": "0x608060405234801561001057600080fd5b50610c23806100206000396000f3fe60806040526004361061003f5760003560e01c806338acdb231461004457806383920e901461006d5780639ace38c214610098578063c290d691146100da575b600080fd5b34801561005057600080fd5b5061006b600480360381019061006691906106f9565b6100f6565b005b34801561007957600080fd5b50610082610261565b60405161008f91906108af565b60405180910390f35b3480156100a457600080fd5b506100bf60048036038101906100ba91906108d1565b6103a5565b6040516100d19695949392919061092b565b60405180910390f35b6100f460048036038101906100ef91906108d1565b61043e565b005b6000818361010491906109bb565b905060006040518060c001604052803373ffffffffffffffffffffffffffffffffffffffff1681526020018673ffffffffffffffffffffffffffffffffffffffff16815260200185815260200184815260200183815260200160001515815250908060018154018082558091505060019003906000526020600020906006020160009091909190915060008201518160000160006101000a81548173ffffffffffffffffffffffffffffffffffffffff021916908373ffffffffffffffffffffffffffffffffffffffff16021790555060208201518160010160006101000a81548173ffffffffffffffffffffffffffffffffffffffff021916908373ffffffffffffffffffffffffffffffffffffffff16021790555060408201518160020155606082015181600301556080820151816004015560a08201518160050160006101000a81548160ff021916908315150217905550505050505050565b60606000805480602002602001604051908101604052809291908181526020016000905b8282101561039c57838290600052602060002090600602016040518060c00160405290816000820160009054906101000a900473ffffffffffffffffffffffffffffffffffffffff1673ffffffffffffffffffffffffffffffffffffffff1673ffffffffffffffffffffffffffffffffffffffff1681526020016001820160009054906101000a900473ffffffffffffffffffffffffffffffffffffffff1673ffffffffffffffffffffffffffffffffffffffff1673ffffffffffffffffffffffffffffffffffffffff1681526020016002820154815260200160038201548152602001600482015481526020016005820160009054906101000a900460ff16151515158152505081526020019060010190610285565b50505050905090565b600081815481106103b557600080fd5b90600052602060002090600602016000915090508060000160009054906101000a900473ffffffffffffffffffffffffffffffffffffffff16908060010160009054906101000a900473ffffffffffffffffffffffffffffffffffffffff16908060020154908060030154908060040154908060050160009054906101000a900460ff16905086565b6000805490508110610485576040517f08c379a000000000000000000000000000000000000000000000000000000000815260040161047c90610a5a565b60405180910390fd5b600080828154811061049a57610499610a7a565b5b906000526020600020906006020190508060010160009054906101000a900473ffffffffffffffffffffffffffffffffffffffff1673ffffffffffffffffffffffffffffffffffffffff163373ffffffffffffffffffffffffffffffffffffffff161461053c576040517f08c379a000000000000000000000000000000000000000000000000000000000815260040161053390610af5565b60405180910390fd5b80600401543414610582576040517f08c379a000000000000000000000000000000000000000000000000000000000815260040161057990610b61565b60405180910390fd5b8060050160009054906101000a900460ff16156105d4576040517f08c379a00000000000000000000000000000000000000000000000000000000081526004016105cb90610bcd565b60405180910390fd5b60018160050160006101000a81548160ff0219169083151502179055508060000160009054906101000a900473ffffffffffffffffffffffffffffffffffffffff1673ffffffffffffffffffffffffffffffffffffffff166108fc349081150290604051600060405180830381858888f1935050505015801561065b573d6000803e3d6000fd5b505050565b600080fd5b600073ffffffffffffffffffffffffffffffffffffffff82169050919050565b600061069082610665565b9050919050565b6106a081610685565b81146106ab57600080fd5b50565b6000813590506106bd81610697565b92915050565b6000819050919050565b6106d6816106c3565b81146106e157600080fd5b50565b6000813590506106f3816106cd565b92915050565b60008060006060848603121561071257610711610660565b5b6000610720868287016106ae565b9350506020610731868287016106e4565b9250506040610742868287016106e4565b9150509250925092565b600081519050919050565b600082825260208201905092915050565b6000819050602082019050919050565b61078181610685565b82525050565b610790816106c3565b82525050565b60008115159050919050565b6107ab81610796565b82525050565b60c0820160008201516107c76000850182610778565b5060208201516107da6020850182610778565b5060408201516107ed6040850182610787565b5060608201516108006060850182610787565b5060808201516108136080850182610787565b5060a082015161082660a08501826107a2565b50505050565b600061083883836107b1565b60c08301905092915050565b6000602082019050919050565b600061085c8261074c565b6108668185610757565b935061087183610768565b8060005b838110156108a2578151610889888261082c565b975061089483610844565b925050600181019050610875565b5085935050505092915050565b600060208201905081810360008301526108c98184610851565b905092915050565b6000602082840312156108e7576108e6610660565b5b60006108f5848285016106e4565b91505092915050565b61090781610685565b82525050565b610916816106c3565b82525050565b61092581610796565b82525050565b600060c08201905061094060008301896108fe565b61094d60208301886108fe565b61095a604083018761090d565b610967606083018661090d565b610974608083018561090d565b61098160a083018461091c565b979650505050505050565b7f4e487b7100000000000000000000000000000000000000000000000000000000600052601160045260246000fd5b60006109c6826106c3565b91506109d1836106c3565b92508282026109df816106c3565b915082820484148315176109f6576109f561098c565b5b5092915050565b600082825260208201905092915050565b7f496e76616c6964207472616e73616374696f6e20494400000000000000000000600082015250565b6000610a446016836109fd565b9150610a4f82610a0e565b602082019050919050565b60006020820190508181036000830152610a7381610a37565b9050919050565b7f4e487b7100000000000000000000000000000000000000000000000000000000600052603260045260246000fd5b7f4f6e6c792074686520666163746f72792063616e207061790000000000000000600082015250565b6000610adf6018836109fd565b9150610aea82610aa9565b602082019050919050565b60006020820190508181036000830152610b0e81610ad2565b9050919050565b7f496e636f727265637420616d6f756e7400000000000000000000000000000000600082015250565b6000610b4b6010836109fd565b9150610b5682610b15565b602082019050919050565b60006020820190508181036000830152610b7a81610b3e565b9050919050565b7f416c726561647920706169640000000000000000000000000000000000000000600082015250565b6000610bb7600c836109fd565b9150610bc282610b81565b602082019050919050565b60006020820190508181036000830152610be681610baa565b905091905056fea2646970667358221220ed36b7c3142c21647781c01bebb547aef1a48597974c076e7353fd245251dc3364736f6c63430008140033",
  "linkReferences": {},
  "deployedLinkReferences": {}
}